{
  "contractName": "TreasuryContract",
  "abi": [
    {
      "inputs": [
        {
          "internalType": "address",
          "name": "tokenAddress",
          "type": "address"
        }
      ],
      "stateMutability": "nonpayable",
      "type": "constructor"
    },
    {
      "anonymous": false,
      "inputs": [
        {
          "indexed": true,
          "internalType": "address",
          "name": "previousOwner",
          "type": "address"
        },
        {
          "indexed": true,
          "internalType": "address",
          "name": "newOwner",
          "type": "address"
        }
      ],
      "name": "OwnershipTransferred",
      "type": "event"
    },
    {
      "anonymous": false,
      "inputs": [
        {
          "indexed": true,
          "internalType": "address",
          "name": "subsidiary",
          "type": "address"
        },
        {
          "indexed": false,
          "internalType": "uint256",
          "name": "amount",
          "type": "uint256"
        }
      ],
      "name": "Settlement",
      "type": "event"
    },
    {
      "anonymous": false,
      "inputs": [
        {
          "indexed": true,
          "internalType": "address",
          "name": "subsidiary",
          "type": "address"
        },
        {
          "indexed": false,
          "internalType": "uint256",
          "name": "amount",
          "type": "uint256"
        }
      ],
      "name": "TokensAllocated",
      "type": "event"
    },
    {
      "anonymous": false,
      "inputs": [
        {
          "indexed": true,
          "internalType": "address",
          "name": "subsidiary",
          "type": "address"
        },
        {
          "indexed": false,
          "internalType": "uint256",
          "name": "amount",
          "type": "uint256"
        }
      ],
      "name": "TokensMinted",
      "type": "event"
    },
    {
      "inputs": [],
      "name": "owner",
      "outputs": [
        {
          "internalType": "address",
          "name": "",
          "type": "address"
        }
      ],
      "stateMutability": "view",
      "type": "function",
      "constant": true
    },
    {
      "inputs": [],
      "name": "renounceOwnership",
      "outputs": [],
      "stateMutability": "nonpayable",
      "type": "function"
    },
    {
      "inputs": [
        {
          "internalType": "address",
          "name": "",
          "type": "address"
        }
      ],
      "name": "subsidiaryBalances",
      "outputs": [
        {
          "internalType": "uint256",
          "name": "",
          "type": "uint256"
        }
      ],
      "stateMutability": "view",
      "type": "function",
      "constant": true
    },
    {
      "inputs": [],
      "name": "token",
      "outputs": [
        {
          "internalType": "contract GroupcoinToken",
          "name": "",
          "type": "address"
        }
      ],
      "stateMutability": "view",
      "type": "function",
      "constant": true
    },
    {
      "inputs": [
        {
          "internalType": "address",
          "name": "newOwner",
          "type": "address"
        }
      ],
      "name": "transferOwnership",
      "outputs": [],
      "stateMutability": "nonpayable",
      "type": "function"
    },
    {
      "inputs": [
        {
          "internalType": "address[]",
          "name": "subsidiaries",
          "type": "address[]"
        },
        {
          "internalType": "uint256[]",
          "name": "amounts",
          "type": "uint256[]"
        }
      ],
      "name": "mintGroupcoins",
      "outputs": [],
      "stateMutability": "nonpayable",
      "type": "function"
    },
    {
      "inputs": [
        {
          "internalType": "address",
          "name": "subsidiary",
          "type": "address"
        },
        {
          "internalType": "uint256",
          "name": "amount",
          "type": "uint256"
        }
      ],
      "name": "allocateTokens",
      "outputs": [],
      "stateMutability": "nonpayable",
      "type": "function"
    },
    {
      "inputs": [
        {
          "internalType": "address",
          "name": "from",
          "type": "address"
        },
        {
          "internalType": "address",
          "name": "to",
          "type": "address"
        },
        {
          "internalType": "uint256",
          "name": "amount",
          "type": "uint256"
        }
      ],
      "name": "transferTokensBetweenSubsidiaries",
      "outputs": [],
      "stateMutability": "nonpayable",
      "type": "function"
    },
    {
      "inputs": [
        {
          "internalType": "address[]",
          "name": "subsidiaries",
          "type": "address[]"
        }
      ],
      "name": "settleAccounts",
      "outputs": [],
      "stateMutability": "nonpayable",
      "type": "function"
    }
  ],
  "bytecode": "0x608060405234801561001057600080fd5b50604051610cf9380380610cf983398101604081905261002f916100ad565b6100383361005d565b600180546001600160a01b0319166001600160a01b03929092169190911790556100dd565b600080546001600160a01b038381166001600160a01b0319831681178455604051919092169283917f8be0079c531659141344cd1fd0a4f28419497f9722a3daafe3b4186f6b6457e09190a35050565b6000602082840312156100bf57600080fd5b81516001600160a01b03811681146100d657600080fd5b9392505050565b610c0d806100ec6000396000f3fe608060405234801561001057600080fd5b50600436106100935760003560e01c80638da5cb5b116100665780638da5cb5b146100fb578063919ab99014610120578063d7f4893e14610133578063f2fde38b14610146578063fc0c546a1461015957600080fd5b80632f92fa9b14610098578063564be4c2146100ad578063715018a6146100e057806386ce0285146100e8575b600080fd5b6100ab6100a63660046109c2565b61016c565b005b6100cd6100bb3660046109fe565b60026020526000908152604090205481565b6040519081526020015b60405180910390f35b6100ab610312565b6100ab6100f6366004610a20565b610326565b6000546001600160a01b03165b6040516001600160a01b0390911681526020016100d7565b6100ab61012e366004610a96565b61049d565b6100ab610141366004610b02565b6106c3565b6100ab6101543660046109fe565b610883565b600154610108906001600160a01b031681565b336001600160a01b038416146101db5760405162461bcd60e51b815260206004820152602960248201527f556e617574686f72697a65643a2073656e646572206d757374206f776e20746860448201526832903a37b5b2b7399760b91b60648201526084015b60405180910390fd5b6001600160a01b03831660009081526002602052604090205481111561023b5760405162461bcd60e51b815260206004820152601560248201527424b739bab33334b1b4b2b73a103130b630b731b29760591b60448201526064016101d2565b6001600160a01b03831660009081526002602052604081208054839290610263908490610b5a565b90915550506001600160a01b03821660009081526002602052604081208054839290610290908490610b73565b909155505060015460405163a9059cbb60e01b81526001600160a01b038481166004830152602482018490529091169063a9059cbb906044016020604051808303816000875af11580156102e8573d6000803e3d6000fd5b505050506040513d601f19601f8201168201806040525081019061030c9190610b86565b50505050565b61031a6108fc565b6103246000610956565b565b61032e6108fc565b3060009081526002602052604090205481111561038d5760405162461bcd60e51b815260206004820181905260248201527f496e73756666696369656e7420746f6b656e7320696e2054726561737572792e60448201526064016101d2565b30600090815260026020526040812080548392906103ac908490610b5a565b90915550506001600160a01b038216600090815260026020526040812080548392906103d9908490610b73565b909155505060015460405163a9059cbb60e01b81526001600160a01b038481166004830152602482018490529091169063a9059cbb906044016020604051808303816000875af1158015610431573d6000803e3d6000fd5b505050506040513d601f19601f820116820180604052508101906104559190610b86565b50816001600160a01b03167f3b87361b8a201c697d51aaa7a509f6dfb3870db9e5c5501d22d3e9fae858f7258260405161049191815260200190565b60405180910390a25050565b6104a56108fc565b8281146104f45760405162461bcd60e51b815260206004820152601960248201527f4d69736d61746368656420696e707574206c656e677468732e0000000000000060448201526064016101d2565b60005b838110156106bc576001546001600160a01b03166340c10f1986868481811061052257610522610ba8565b905060200201602081019061053791906109fe565b85858581811061054957610549610ba8565b6040516001600160e01b031960e087901b1681526001600160a01b0390941660048501526020029190910135602483015250604401600060405180830381600087803b15801561059857600080fd5b505af11580156105ac573d6000803e3d6000fd5b505050508282828181106105c2576105c2610ba8565b90506020020135600260008787858181106105df576105df610ba8565b90506020020160208101906105f491906109fe565b6001600160a01b03166001600160a01b0316815260200190815260200160002060008282546106239190610b73565b90915550859050848281811061063b5761063b610ba8565b905060200201602081019061065091906109fe565b6001600160a01b03167f3f2c9d57c068687834f0de942a9babb9e5acab57d516d3480a3c16ee165a427384848481811061068c5761068c610ba8565b905060200201356040516106a291815260200190565b60405180910390a2806106b481610bbe565b9150506104f7565b5050505050565b6106cb6108fc565b60005b8181101561087e576000600260008585858181106106ee576106ee610ba8565b905060200201602081019061070391906109fe565b6001600160a01b03166001600160a01b0316815260200190815260200160002054905060006002600086868681811061073e5761073e610ba8565b905060200201602081019061075391906109fe565b6001600160a01b03908116825260208201929092526040016000209190915560015416639dc29fac85858581811061078d5761078d610ba8565b90506020020160208101906107a291906109fe565b6040516001600160e01b031960e084901b1681526001600160a01b03909116600482015260248101849052604401600060405180830381600087803b1580156107ea57600080fd5b505af11580156107fe573d6000803e3d6000fd5b5050505083838381811061081457610814610ba8565b905060200201602081019061082991906109fe565b6001600160a01b03167fbddcc4ab73b8e971706360fbdcce2f609328e78217649695ee3ab811ab52d1628260405161086391815260200190565b60405180910390a2508061087681610bbe565b9150506106ce565b505050565b61088b6108fc565b6001600160a01b0381166108f05760405162461bcd60e51b815260206004820152602660248201527f4f776e61626c653a206e6577206f776e657220697320746865207a65726f206160448201526564647265737360d01b60648201526084016101d2565b6108f981610956565b50565b6000546001600160a01b031633146103245760405162461bcd60e51b815260206004820181905260248201527f4f776e61626c653a2063616c6c6572206973206e6f7420746865206f776e657260448201526064016101d2565b600080546001600160a01b038381166001600160a01b0319831681178455604051919092169283917f8be0079c531659141344cd1fd0a4f28419497f9722a3daafe3b4186f6b6457e09190a35050565b80356001600160a01b03811681146109bd57600080fd5b919050565b6000806000606084860312156109d757600080fd5b6109e0846109a6565b92506109ee602085016109a6565b9150604084013590509250925092565b600060208284031215610a1057600080fd5b610a19826109a6565b9392505050565b60008060408385031215610a3357600080fd5b610a3c836109a6565b946020939093013593505050565b60008083601f840112610a5c57600080fd5b50813567ffffffffffffffff811115610a7457600080fd5b6020830191508360208260051b8501011115610a8f57600080fd5b9250929050565b60008060008060408587031215610aac57600080fd5b843567ffffffffffffffff80821115610ac457600080fd5b610ad088838901610a4a565b90965094506020870135915080821115610ae957600080fd5b50610af687828801610a4a565b95989497509550505050565b60008060208385031215610b1557600080fd5b823567ffffffffffffffff811115610b2c57600080fd5b610b3885828601610a4a565b90969095509350505050565b634e487b7160e01b600052601160045260246000fd5b81810381811115610b6d57610b6d610b44565b92915050565b80820180821115610b6d57610b6d610b44565b600060208284031215610b9857600080fd5b81518015158114610a1957600080fd5b634e487b7160e01b600052603260045260246000fd5b600060018201610bd057610bd0610b44565b506001019056fea26469706673582212205777a5e48f4e9fd2b20423f72f450f53831b6c8289a46faaf2940bd426de962964736f6c63430008130033",
  "immutableReferences": {},
  "source": "// SPDX-License-Identifier: MIT\npragma solidity >=0.4.22 <0.8.20;\n\nimport \"./GroupcoinToken.sol\";\nimport \"@openzeppelin/contracts/access/Ownable.sol\";\n\ncontract TreasuryContract is Ownable {\n    GroupcoinToken public token;\n    \n    // Single constructor definition\n    constructor(address tokenAddress) {\n        token = GroupcoinToken(tokenAddress);\n    }\n\n    mapping(address => uint256) public subsidiaryBalances;\n\n    event TokensMinted(address indexed subsidiary, uint256 amount);\n    event TokensAllocated(address indexed subsidiary, uint256 amount);\n    event Settlement(address indexed subsidiary, uint256 amount);\n\n    function mintGroupcoins(address[] calldata subsidiaries, uint256[] calldata amounts) external onlyOwner {\n        require(subsidiaries.length == amounts.length, \"Mismatched input lengths.\");\n        for (uint i = 0; i < subsidiaries.length; i++) {\n            token.mint(subsidiaries[i], amounts[i]);\n            subsidiaryBalances[subsidiaries[i]] += amounts[i];\n            emit TokensMinted(subsidiaries[i], amounts[i]);\n        }\n    }\n\n    function allocateTokens(address subsidiary, uint256 amount) public onlyOwner {\n        require(subsidiaryBalances[address(this)] >= amount, \"Insufficient tokens in Treasury.\");\n        subsidiaryBalances[address(this)] -= amount;\n        subsidiaryBalances[subsidiary] += amount;\n        token.transfer(subsidiary, amount);\n        emit TokensAllocated(subsidiary, amount);\n    }\n\n    function transferTokensBetweenSubsidiaries(address from, address to, uint256 amount) public {\n        require(msg.sender == from, \"Unauthorized: sender must own the tokens.\");\n        require(subsidiaryBalances[from] >= amount, \"Insufficient balance.\");\n        subsidiaryBalances[from] -= amount;\n        subsidiaryBalances[to] += amount;\n        token.transfer(to, amount);\n    }\n\n    function settleAccounts(address[] calldata subsidiaries) external onlyOwner {\n        for (uint i = 0; i < subsidiaries.length; i++) {\n            uint256 balance = subsidiaryBalances[subsidiaries[i]];\n            subsidiaryBalances[subsidiaries[i]] = 0;\n            token.burn(subsidiaries[i], balance);\n            emit Settlement(subsidiaries[i], balance);\n        }\n    }\n}\n",
  "sourcePath": "/Users/aniketsagar/Downloads/Decentralized_eCom-master/backend/contracts/Treasury.sol",
  "compiler": {
    "name": "solc",
    "version": "0.8.19+commit.7dd6d404.Emscripten.clang"
  },
  "schemaVersion": "3.4.16",
  "updatedAt": "2024-05-09T20:55:54.560Z",
  "networkType": "ethereum",
  "devdoc": {
    "kind": "dev",
    "methods": {
      "owner()": {
        "details": "Returns the address of the current owner."
      },
      "renounceOwnership()": {
        "details": "Leaves the contract without owner. It will not be possible to call `onlyOwner` functions. Can only be called by the current owner. NOTE: Renouncing ownership will leave the contract without an owner, thereby disabling any functionality that is only available to the owner."
      },
      "transferOwnership(address)": {
        "details": "Transfers ownership of the contract to a new account (`newOwner`). Can only be called by the current owner."
      }
    },
    "version": 1
  },
  "userdoc": {
    "kind": "user",
    "methods": {},
    "version": 1
  }
}